{
  "abi": [
    {
      "inputs": [],
      "name": "getNumber",
      "outputs": [
        {
          "internalType": "uint256",
          "name": "",
          "type": "uint256"
        }
      ],
      "stateMutability": "nonpayable",
      "type": "function"
    },
    {
      "inputs": [],
      "name": "getNumberAndCollect",
      "outputs": [
        {
          "internalType": "uint256",
          "name": "",
          "type": "uint256"
        }
      ],
      "stateMutability": "nonpayable",
      "type": "function"
    },
    {
      "inputs": [],
      "name": "number",
      "outputs": [
        {
          "internalType": "uint256",
          "name": "",
          "type": "uint256"
        }
      ],
      "stateMutability": "view",
      "type": "function"
    },
    {
      "inputs": [
        {
          "internalType": "uint256",
          "name": "num",
          "type": "uint256"
        }
      ],
      "name": "setNumber",
      "outputs": [],
      "stateMutability": "nonpayable",
      "type": "function"
    }
  ],
  "bytecode": {
    "object": "0x608060405234801561001057600080fd5b5060d48061001f6000396000f3fe6080604052348015600f57600080fd5b506004361060465760003560e01c806324cab40114604b5780633fb5c1cb1460655780638381f58a146077578063f2c9ecd814607f575b600080fd5b600080549080555b60405190815260200160405180910390f35b607560703660046086565b600055565b005b605360005481565b6000546053565b600060208284031215609757600080fd5b503591905056fea2646970667358221220af46ccc8e80588eae1daac585eaaceee6fa217b7ccb6d621e8cb457f7f7979fc64736f6c63430008150033",
    "linkReferences": {}
  },
  "methodIdentifiers": {
    "getNumber()": "f2c9ecd8",
    "getNumberAndCollect()": "24cab401",
    "number()": "8381f58a",
    "setNumber(uint256)": "3fb5c1cb"
  },
  "id": 23
}