{
  "abi": [
    {
      "inputs": [
        {
          "internalType": "uint256",
          "name": "number",
          "type": "uint256"
        }
      ],
      "name": "badNesting",
      "outputs": [
        {
          "internalType": "string",
          "name": "",
          "type": "string"
        }
      ],
      "stateMutability": "pure",
      "type": "function"
    },
    {
      "inputs": [
        {
          "internalType": "uint256",
          "name": "number",
          "type": "uint256"
        }
      ],
      "name": "goodNesting",
      "outputs": [
        {
          "internalType": "string",
          "name": "",
          "type": "string"
        }
      ],
      "stateMutability": "pure",
      "type": "function"
    }
  ],
  "bytecode": {
    "object": "0x608060405234801561001057600080fd5b5061017d806100206000396000f3fe608060405234801561001057600080fd5b50600436106100365760003560e01c80639e0538561461003b578063c0ca164f1461003b575b600080fd5b61004e6100493660046100e0565b610064565b60405161005b91906100f9565b60405180910390f35b60606000821180156100765750606482105b8015610083575081603214155b156100b357505060408051808201909152600f81526e22bc3832b1ba32b210273ab6b132b960891b602082015290565b50506040805180820190915260118152702ab732bc3832b1ba32b210273ab6b132b960791b602082015290565b6000602082840312156100f257600080fd5b5035919050565b600060208083528351808285015260005b818110156101265785810183015185820160400152820161010a565b506000604082860101526040601f19601f830116850101925050509291505056fea2646970667358221220a106d03882f265d2199787ea14615bc28eb8ef7679b72b7df3b0c09cc9ee62a464736f6c63430008150033",
    "linkReferences": {}
  },
  "methodIdentifiers": {
    "badNesting(uint256)": "9e053856",
    "goodNesting(uint256)": "c0ca164f"
  },
  "id": 24
}