{
  "abi": [
    {
      "inputs": [],
      "name": "badDataType",
      "outputs": [
        {
          "internalType": "uint256",
          "name": "",
          "type": "uint256"
        }
      ],
      "stateMutability": "nonpayable",
      "type": "function"
    },
    {
      "inputs": [],
      "name": "goodDataType",
      "outputs": [
        {
          "internalType": "uint256",
          "name": "",
          "type": "uint256"
        }
      ],
      "stateMutability": "nonpayable",
      "type": "function"
    },
    {
      "inputs": [],
      "name": "lastGasUsedOptimized",
      "outputs": [
        {
          "internalType": "uint256",
          "name": "",
          "type": "uint256"
        }
      ],
      "stateMutability": "view",
      "type": "function"
    },
    {
      "inputs": [],
      "name": "lastGasUsedRegular",
      "outputs": [
        {
          "internalType": "uint256",
          "name": "",
          "type": "uint256"
        }
      ],
      "stateMutability": "view",
      "type": "function"
    }
  ],
  "bytecode": {
    "object": "0x60806040526000805460ff1916815560015534801561001d57600080fd5b506101b88061002d6000396000f3fe608060405234801561001057600080fd5b506004361061004c5760003560e01c806312d95fab14610051578063578e4ec61461006b5780636eecf67b14610073578063ea5287131461007c575b600080fd5b610059610085565b60405190815260200160405180910390f35b6100596100f9565b61005960025481565b61005960035481565b60006032815a905060005b8260ff168160ff1610156100e157600080546001919081906100b690849060ff16610131565b92506101000a81548160ff021916908360ff16021790555080806100d990610150565b915050610090565b505a6100ed908261016f565b60028190559392505050565b6000805a9050600a60145a61010e908461016f565b6003819055949350505050565b634e487b7160e01b600052601160045260246000fd5b60ff818116838216019081111561014a5761014a61011b565b92915050565b600060ff821660ff81036101665761016661011b565b60010192915050565b8181038181111561014a5761014a61011b56fea26469706673582212207636545686cdebd84535b1d5687d2ac1b6743a8788b3292858cf809c95d5245764736f6c63430008150033",
    "linkReferences": {}
  },
  "methodIdentifiers": {
    "badDataType()": "12d95fab",
    "goodDataType()": "578e4ec6",
    "lastGasUsedOptimized()": "ea528713",
    "lastGasUsedRegular()": "6eecf67b"
  },
  "id": 18
}