{
  "abi": [
    {
      "inputs": [],
      "stateMutability": "payable",
      "type": "constructor"
    },
    {
      "inputs": [],
      "name": "badGetBalance",
      "outputs": [
        {
          "internalType": "uint256",
          "name": "",
          "type": "uint256"
        }
      ],
      "stateMutability": "view",
      "type": "function"
    },
    {
      "inputs": [],
      "name": "deposit",
      "outputs": [],
      "stateMutability": "payable",
      "type": "function"
    },
    {
      "inputs": [],
      "name": "goodGetBalance",
      "outputs": [
        {
          "internalType": "uint256",
          "name": "",
          "type": "uint256"
        }
      ],
      "stateMutability": "view",
      "type": "function"
    },
    {
      "inputs": [],
      "name": "storedBalance",
      "outputs": [
        {
          "internalType": "uint256",
          "name": "",
          "type": "uint256"
        }
      ],
      "stateMutability": "view",
      "type": "function"
    }
  ],
  "bytecode": {
    "object": "0x60806040524760005560ed806100166000396000f3fe608060405260043610603a5760003560e01c806379e62f9d14603f578063867c36d214603f578063d0e30db014605f578063e9eca994146067575b600080fd5b348015604a57600080fd5b50475b60405190815260200160405180910390f35b6065607b565b005b348015607257600080fd5b50604d60005481565b34600080828254608a91906091565b9091555050565b8082018082111560b157634e487b7160e01b600052601160045260246000fd5b9291505056fea26469706673582212205cc5bb0de1b5a0327f98c18a739f03d091d86a15f3a5c073a4b40971b34dae3764736f6c63430008150033",
    "linkReferences": {}
  },
  "methodIdentifiers": {
    "badGetBalance()": "79e62f9d",
    "deposit()": "d0e30db0",
    "goodGetBalance()": "867c36d2",
    "storedBalance()": "e9eca994"
  },
  "id": 18
}