{
  "abi": [
    {
      "inputs": [
        {
          "internalType": "uint256[]",
          "name": "myArray",
          "type": "uint256[]"
        }
      ],
      "name": "addCD",
      "outputs": [
        {
          "internalType": "uint256",
          "name": "sum",
          "type": "uint256"
        }
      ],
      "stateMutability": "pure",
      "type": "function"
    },
    {
      "inputs": [
        {
          "internalType": "uint256[]",
          "name": "myArray",
          "type": "uint256[]"
        }
      ],
      "name": "addMem",
      "outputs": [
        {
          "internalType": "uint256",
          "name": "sum",
          "type": "uint256"
        }
      ],
      "stateMutability": "pure",
      "type": "function"
    }
  ],
  "bytecode": {
    "object": "0x608060405234801561001057600080fd5b50610272806100206000396000f3fe608060405234801561001057600080fd5b50600436106100365760003560e01c806301783b8d1461003b57806349ba468814610060575b600080fd5b61004e610049366004610120565b610073565b60405190815260200160405180910390f35b61004e61006e366004610120565b6100c2565b8051600090815b818110156100bb57838181518110610094576100946101de565b6020026020010151836100a7919061020a565b9250806100b381610223565b91505061007a565b5050919050565b8051600090815b818110156100bb578381815181106100e3576100e36101de565b6020026020010151836100f6919061020a565b92508061010281610223565b9150506100c9565b634e487b7160e01b600052604160045260246000fd5b6000602080838503121561013357600080fd5b823567ffffffffffffffff8082111561014b57600080fd5b818501915085601f83011261015f57600080fd5b8135818111156101715761017161010a565b8060051b604051601f19603f830116810181811085821117156101965761019661010a565b6040529182528482019250838101850191888311156101b457600080fd5b938501935b828510156101d2578435845293850193928501926101b9565b98975050505050505050565b634e487b7160e01b600052603260045260246000fd5b634e487b7160e01b600052601160045260246000fd5b8082018082111561021d5761021d6101f4565b92915050565b600060018201610235576102356101f4565b506001019056fea26469706673582212204572e2940b0d0764103ec0b0f5b1b27b658812bfd3ea214ca43eee5587f6e1b064736f6c63430008150033",
    "linkReferences": {}
  },
  "methodIdentifiers": {
    "addCD(uint256[])": "01783b8d",
    "addMem(uint256[])": "49ba4688"
  },
  "id": 20
}